320190301000001420009620676017475300003153153453JOÃO MACEDO   BAR DO JOÃO       
520190301000001320055641815063312300007687145607MARIA JOSEFINALOJA DO Ó - MATRIZ
320190301000001220084515254073677700001313172712MARCOS PEREIRAMERCADO DA AVENIDA
220190301000001120009620676017364800000099234234JOÃO MACEDO   BAR DO JOÃO       
120190301000001520009620676017123400007890233000JOÃO MACEDO   BAR DO JOÃO       
220190301000001070084515254073872300009987123333MARCOS PEREIRAMERCADO DA AVENIDA
220190301000005020084515254073847300001231231233MARCOS PEREIRAMERCADO DA AVENIDA
320190301000006020023270298056677700001313172712JOSÉ COSTA    MERCEARIA 3 IRMÃOS
120190301000002000055641815063123400003324090002MARIA JOSEFINALOJA DO Ó - MATRIZ
520190301000008020084515254073312300007687145607MARCOS PEREIRAMERCADO DA AVENIDA
220190301000001020023270298056847300001231231233JOSÉ COSTA    MERCEARIA 3 IRMÃOS
320190301000061020023270298056677700001313172712JOSÉ COSTA    MERCEARIA 3 IRMÃOS
420190301000001523255641815063123400006678100000MARIA JOSEFINALOJA DO Ó - FILIAL
820190301000001020384515254073234400001222123222MARCOS PEREIRAMERCADO DA AVENIDA
320190301000001030023270298056677700001313172712JOSÉ COSTA    MERCEARIA 3 IRMÃOS
920190301000001020055641815063622800009090000000MARIA JOSEFINALOJA DO Ó - MATRIZ
420190601000005061784515254073123400002231100000MARCOS PEREIRAMERCADO DA AVENIDA
220190301000001090023270298056872300009987123333JOSÉ COSTA    MERCEARIA 3 IRMÃOS
820190301000000020084515254073234400001222123222MARCOS PEREIRAMERCADO DA AVENIDA
220190301000000050023270298056767700008778141808JOSÉ COSTA    MERCEARIA 3 IRMÃOS
320190301000001920084515254073677700001313172712MARCOS PEREIRAMERCADO DA AVENIDA